:1000000000800020BD010000F9340000BD34000074
:10001000BD340000BD340000BD340000BD3400001C
:10002000BD340000BD340000BD340000F9340000D0
:10003000F9340000BD340000B1420000A1430000CB
:10004000F9340000F9340000F9340000F9340000FC
:10005000F9340000F9340000F9340000F9340000EC
:10006000F9340000F9340000F9340000F9340000DC
:10007000F9340000F9340000F9340000F9340000CC
:10008000F9340000F9340000F9340000F9340000BC
:10009000F9340000F9340000F9340000F9340000AC
:1000A000F9340000F9340000F9340000F93400009C
:1000B000F9340000F9340000F9340000F93400008C
:1000C000F9340000F9340000F9340000F93400007C
:1000D000F9340000F9340000F9340000F93400006C
:1000E000F9340000F9340000F9340000F93400005C
:1000F000F9340000F1450000F934000035470000F4
:10010000F934000079480000F9340000F9340000A7
:10011000F9340000F9340000F9340000F93400002B
:10012000F9340000F9340000F9340000F93400001B
:10013000F9340000F9340000F9340000F93400000B
:10014000F9340000F9340000F9340000F9340000FB
:10015000F9340000F9340000F9340000F9340000EB
:10016000F9340000D9390000F9340000F9340000F6
:10017000F9340000F9340000F9340000F9340000CB
:10018000F9340000F9340000F9340000F9340000BB
:10019000F9340000F9340000F9340000F9340000AB
:1001A000F9340000F9340000F9340000F93400009B
:1001B000F9340000F9340000F9340000564B4CF2D9
:1001C000205210B51A804DF628121A8000BF00BFC9
:1001D00003F096F9514B4FF010621A60504A9A6042
:1001E000504ADA60504A136813F4807304D14F49BF
:1001F0000B604FF4A85313604D4B1A78110703D5C9
:100200001A7842F008021A704A4B4B492A221A7097
:100210004A4A4B4B8B4204D252F8040F43F8040B6A
:10022000F8E7484B484900228B4202D243F8042B9E
:10023000FAE74649464A002352F8230041F82300D2
:1002400001336F2BF8D1434B434A802103F8011B44
:100250009342FBD1414B3D4A1A60414B8A221A70AE
:10026000A3F5805324225A70A0221A709A7992071B
:10027000FCD59A79D406FCD43A4A937903F00C035E
:10028000082B384BF9D103221A7140225A719A79FE
:100290009006FCD5334A9179324B4906FBD5324A58
:1002A000324911600221516020221A709A7902F0BD
:1002B0000C020C2AFAD12E4B2E4A1A602E4B4BF60A
:1002C0007F321A6000225A60072243F8042C2B4A1E
:1002D000C3F80C2D62B603F073FA144B1B68DA07EF
:1002E00005D5274803F030F9264B274A1A60274BDB
:1002F0001B785B0609D5234C234B22689A4204D114
:100300001F4803F021F90023236004F079FB03F078
:10031000FDF804F04FF8FEE70E2005403080044061
:10032000823F04000100002B10D0034014D0034092
:1003300002D0074000E007407096FF1FE86E000003
:100340002087FF1F7096FF1FF09AFF1F0082FF1F7C
:100350000000000000E400E05FE400E008ED00E0E1
:100360000050064000400640448004400000131145
:1003700004800440C010050014E000E000002020CC
:1003800079DE8E5B1CE00340A5C3945A00F0074061
:10039000FFFFFFFFFFFFFFFFFFFFFFFFFFFFFFFF6D
:1003A000FFFFFFFFFFFFFFFFFFFFFFFFFFFFFFFF5D
:1003B000FFFFFFFFFFFFFFFFFFFFFFFFFFFFFFFF4D
:1003C000FFFFFFFFFFFFFFFFFFFFFFFFFFFFFFFF3D
:1003D000FFFFFFFFFFFFFFFFFFFFFFFFFFFFFFFF2D
:1003E000FFFFFFFFFFFFFFFFFFFFFFFFFFFFFFFF1D
:1003F000FFFFFFFFFFFFFFFFFFFFFFFFFFFFFFFF0D
:10040000FFFFFFFFFFFFFFFFFFFFFFFFDEF9FFFF23
:1004100010B5054C237833B9044B13B10448AFF33E
:1004200000800123237010BD7096FF1F00000000A4
:10043000EC6E0000084B10B51BB108490848AFF33B
:1004400000800848036803B910BD074B002BFBD0A0
:10045000BDE81040184700BF000000007496FF1F61
:10046000EC6E00007096FF1F000000000020704737
:10047000704700BF0020704700487047406C000084
:1004800000487047346C000000487047286C00003A
:10049000004870474C6C00008378204AD25C437857
:1004A000083B072B11D8DFE803F004061010080AF8
:1004B0000C0E1B490AE01B4908E01B4906E01B49DA
:1004C00004E01B4902E01B4900E01B4901238B5457
:1004D0001A4B1B782BB9C378022B14BF00230123BE
:1004E00000E00123104A9370154B1B782BB9C37899
:1004F000042B14BF0023012300E001230A4A937157
:10050000104B1B782BB9C378082B14BF0023012391
:1005100000E00123044A5371704700BF085E0000E9
:10052000EC97FF1FC896FF1FC096FF1FBC97FF1FC9
:10053000E497FF1FD096FF1FD897FF1FBC96FF1FA1
:10054000D697FF1FBE96FF1F8378174AD25C437869
:10055000083B072B11D8DFE803F004061010080A47
:100560000C0E12490AE0124908E0124906E012494D
:1005700004E0124902E0124900E0124900238B54C2
:100580000C4B114A1278003218BF01229A700F4AA0
:100590001278003218BF01229A710D4A1278003287
:1005A00018BF01225A717047085E0000EC97FF1FC8
:1005B000C896FF1FC096FF1FBC97FF1FE497FF1F41
:1005C000D096FF1FD897FF1FBC96FF1FD697FF1F1F
:1005D000BE96FF1F027890B110F8083F9A42FBD0F8
:1005E0006BB90378012B03D010F8083D012BFBD128
:1005F0004378012B03D908384378012BFBD170478E
:10060000027890B1012A05D110F8083F002BFBD1E8
:10061000083803E010F8083D9342FBD04378012BE3
:1006200003D908384378012BFBD1704700EB8101D7
:100630004A610120704700BF10B504468068036816
:100640009B68217B98470020207660760123E37623
:100650002073E06184F8200010BD00BF007B70476C
:10066000032914BF00200120704700BF012914BFD7
:1006700000200120704700BF00EB810148697047EE
:1006800090F82000704700BF30B4039DC47E022C58
:1006900023D001764276EB7803F00303032B1CD1C1
:1006A00095F90230002B18DAAB7990F821209A42A4
:1006B00038BF80F8213004EB44030344AA7802F0E9
:1006C0000F025A73AA889A73DA7B02F0FC020121A6
:1006D00061F38702DA730C44C47630BC704700BF04
:1006E000A0F10400D0E700BF704700BFF8B5A0F14B
:1006F0002003DBB2942B9DBF20380C4B03EB80050D
:10070000002591B10F46002419262846FFF7C4FEA4
:10071000304603F03FF82846FFF716FF304603F057
:1007200039F80134E4B2A742EFD1F8BDD088FF1FF9
:1007300010B50C4B1B7803F18043013B50F82300AC
:1007400004F09EFCC0B2084B1C78A04209D9001BE3
:10075000C4B221469A20FFF7C9FF21469520FFF732
:10076000C5FF10BDB597FF1FD497FF1F10B50446F6
:100770000178B1FA81F14909002002F0F5FE6178B3
:10078000B1FA81F14909012002F0EEFEA178B1FA37
:1007900081F14909022002F0E7FEE178B1FA81F126
:1007A0004909032002F0E0FE2179B1FA81F14909FB
:1007B000042002F0D9FE6179B1FA81F149090620DD
:1007C00002F0D2FEA179B1FA81F14909102002F0BC
:1007D000CBFEE179B1FA81F14909112002F0C4FEA2
:1007E00010BD00BF08B572B600222E4B1A6005205E
:1007F00002F0DEFE18B92C48FFF7B8FF4FE00E20DC
:1008000002F0D6FE18B92948FFF7B0FF47E00F20E5
:1008100002F0CEFE18B92648FFF7A8FF3FE01220ED
:1008200002F0C6FE18B92348FFF7A0FF37E01320F7
:1008300002F0BEFE18B92048FFF798FF2FE01620FF
:1008400002F0B6FE18B91D48FFF790FF27E0172009
:1008500002F0AEFE18B91A48FFF788FF1FE0012129
:10086000002002F081FE0121084602F07DFE0121F8
:10087000022002F079FE0121032002F075FE012121
:10088000042002F071FE0121062002F06DFE01211C
:10089000102002F069FE0121112002F065FE62B60F
:1008A00008BD00BFB097FF1FD897FF1FEC97FF1F31
:1008B000C896FF1FC096FF1FBC97FF1FE497FF1F3E
:1008C000D096FF1F10B586B0047B472A14D0532A58
:1008D00002D0392A17D107E0037BC3F30002D243C9
:1008E00062F3000303730EE0037BC3F34002D243C1
:1008F00062F34103037306E0037BC3F38002D24338
:1009000062F382030373037B9C420ED079B10846E5
:1009100006AA02F8013D02920123019300210091F1
:1009200002230A4602F058FC02E0002000E000200A
:1009300006B010BD70B588B090F82030002B2ED0D6
:100940001A4B1B680393039BC2699B1A002B28DB7D
:100950000446027C417C08AB23F8161D017B002075
:10096000019004A80090A06801F030FC054668B929
:10097000BDF80A30022B09D9606938B1026804A9B0
:1009800000911668DBB200222146B047074B1B6876
:100990000493049B94F821201344E36102E00025B2
:1009A00000E00025284608B070BD00BF0498FF1F76
:1009B0002DE9F04F9DB0047B002C40F0FC801D46DB
:1009C0000592894604468768002180F821103B681B
:1009D0001B68384698478046002800F0EE8006687D
:1009E000002E00F0EC8004F10D0AC0F800A0857123
:1009F00017AB0093082300221146A06801F0C2FC47
:100A00008DF85B00002840F0E0809DF85CB0C8F8ED
:100A100000603B685E68059B002249463846B04747
:100A20002073002800F0CD809DF86330A373034647
:100A300000221146A06801F0F5FC8DF85B0058B16A
:100A4000002588F806503B689B68217B384698470C
:100A500025739DF85B00BBE0002388F806303B68F7
:100A60001B68217B38469847002800F0AC805B4625
:100A7000122B28BF1223857143B1217B17AA009244
:100A80000022A06801F07EFC8DF85B009DF85B30D1
:100A9000002B40F089809DF86D706FB30025DFF862
:100AA0003C810FAECDF81C80231D089300228DF8E9
:100AB0003820ADF83A208DF84C208DF84D208DF877
:100AC0004E208DF85420CDF825600B969DF82430EB
:100AD0008DF831308DF830300D96217B07AB0093C7
:100AE000EBB2A06801F078FCE37E022B0BD001355D
:100AF000EBB29F42D6D802E0E37E022B03D0D12393
:100B00008DF85B3050E053460222217BA06801F053
:100B1000A1F88DF85B004FF47A7002F03BFE237E63
:100B20000022217BA06801F095FC8DF85B00002875
:100B30003AD14FF47A7002F02DFE274694F8222025
:100B40000021204602F092FB8DF85B0060BB002381
:100B50001A461946204602F073FB8DF85B001CAA6A
:100B60001D4B42F8543D0021204602F01DFB202081
:100B70000DF15B080126002540108DF85B00CDF8D3
:100B800008800196009502232A462946384602F03D
:100B900023FB192002F0FEFD9DF85B000028EBD13D
:100BA000012384F8203013E023689B68204698478F
:100BB0009DF85B000CE0D9200AE0D62008E0D720A1
:100BC00006E0D42004E0D62002E0C8F80060EBE79D
:100BD0001DB0BDE8F08F00BFA05500009455000087
:100BE000F0B585B00446ADF80E10029200F1200673
:100BF0000025BDF80E30002B00F0CC8094F830308A
:100C0000042BF6D8DFE803F0030D1F26390002237A
:100C10002372D4F80920226163752375012384F8B7
:100C200030300DF10E0202A904F1100002F096FA24
:100C3000002800F0AF80D4F809301A7884F8312009
:100C40005B7884F8323004F12203C4F809300323BE
:100C500084F8303094F83230042B08BF84F83350D5
:100C600094F83130023BDBB22372D4F809202261C0
:100C700063752375042384F8303094F83230042BE4
:100C800011D0052B3CD0022B59D10DF10E0202A937
:100C900004F1100002F062FA00287BD094F82530AD
:100CA00084F834306FE00DF10E0202A904F1100057
:100CB00002F054FA00286DD094F82530032B62D14D
:100CC00094F82630012B5ED194F8383023B194F893
:100CD0002730002B57D003E094F82730012B52D156
:100CE000012384F8333094F8223084F8363094F8B5
:100CF000233084F8373094F8273084F8353042E0D8
:100D00000DF10E0202A904F1100002F027FA0028EA
:100D100040D094F83330002B35D06068002832D0B2
:100D200094F8373094F8362094F834100768019618
:100D300094F835E0CDF800E03F68B84723E0237F22
:100D400013B1012B06D01CE094F83130023BE38351
:100D500001232377E38BDBB1BDF80E20D2B10299DA
:100D6000013103E001310AB9E38313E0013B9BB297
:100D7000013A92B2002BF5D1E5830291ADF80E2035
:100D800006E0E38B33B9C4F8096084F8305030E7EB
:100D90002577F6E705B0F0BDF8B5451E0D4F1426D2
:100DA00015F8010FA0B1A0F12003DBB2942BF7D806
:100DB000203807EB80042046FFF76EFB304602F038
:100DC000E9FC2046FFF7C0FB304602F0E3FCE7E712
:100DD000F8BD00BFD088FF1F2DE9F84F0B1FDBB215
:100DE000692B00F23F8305460439924B13F81140FA
:100DF000822C47D1904B1B78002B5FD0012840F00C
:100E00003183022B40F02E838C4B1B78002B00F09B
:100E100029838B4B1B781BB90122894B1A7006E082
:100E20008848FFF785FC864A137801331370844B9A
:100E300093F80090814B93F800A0814DDFF8048275
:100E40006FF040474FF0010B2C78E31958F82360FE
:100E500016B985F800B00DE0524631467A4804F0E4
:100E60007DF928B906EB0A00FFF796FFBDE8F88F79
:100E700001342C702B784B45E6D10022704B1A7050
:100E8000BDE8F88F802C19D16B4B1B78B3B10128CA
:100E900040F0E882694A1278002A00F0E382684A4A
:100EA0001278002A00F0DE82022B02D16548FFF79B
:100EB0003FFC0022624B1A70BDE8F88F634B1B7831
:100EC000002B40F08582624B1B78002B40F0738230
:100ED000A5E00023584A1370584A1370584A1370FB
:100EE000622C40F0BF820222534B1A70BDE8F88F8B
:100EF000514B1B78022B40F0B582564B1B78A34216
:100F000040F06A822AE0544D9FE2544D9DE2544DD8
:100F10009BE2544D99E2544D97E2544D95E2544D65
:100F200093E2544D91E2544D8FE2544D8DE2544D75
:100F30008BE2544D89E2544D87E2544D85E2544D85
:100F400083E2544D81E2544D7FE2544D7DE29A3C60
:100F5000032C39D8DFE804F0230E0208504B186840
:100F6000FFF738FB054630E04D4B1868FFF748FBAC
:100F700005462AE04A4B1D68002D00F073826B780D
:100F800023B92846FFF726FB05461EE0FF2B04D1B8
:100F9000083D6B78012BFBD117E0083515E0404B7D
:100FA0001D68002D00F05E826B7823B92846FFF79C
:100FB00027FB054609E0012B04D108356B78FF2B90
:100FC000FBD102E0083D00E00025002D00F04A8240
:100FD000334B1C68AC4200F045827CB1606804F081
:100FE0004FF8C6B2A3789E4204D9F11AC9B29A202A
:100FF000FFF77CFB31469520FFF778FB284B1D60FF
:101000006868AC781CB9FFF7C7FEBDE8F88FFFF73A
:10101000C3FE21469A20FFF769FBBDE8F88F214BFC
:101020001B78002B40D0002D3ED100221D4B1A70A2
:10103000BDE8F88FFC87FF1FB497FF1FD497FF1FF1
:10104000B597FF1F545B0000C497FF1F9897FF1FC1
:10105000B997FF1FD896FF1F9C560000FC56000052
:101060002C57000044570000645700007C570000D4
:10107000CC570000E4570000F45700005C58000013
:101080008C580000BC58000024590000A4590000EE
:10109000445A0000FC5A0000145B00002C5B000066
:1010A0009496FF1FAC97FF1F7E4B1B78002B39D007
:1010B000012D37D104F15103DBB2052B2DD97A4B29
:1010C0001B78DBB9794B1B78C3B9794B1B78ABB96B
:1010D000784B1B7893B9A4F16103DBB2192B09D9C2
:1010E000A4F13003092B09D8734B1B7833B9734B28
:1010F0001B781BB914B1FF2C04D10EE00022704BF9
:101100001A700AE06E4B1E780E2E06D8721C1A70EA
:10111000204604F073F86B4B9855694B1B780021FF
:10112000684AD154644B1B781BB9644B1B78002B65
:1011300049D0A4F12703392B45D8DFE813F03E004E
:1011400044004400440044004400400044003C008B
:10115000440044004400440044004400440044006F
:10116000440044004400440044004400440044005F
:10117000440044004400440044004400440044004F
:10118000440044004400440044004400440044003F
:10119000440044004400440044004400440044002F
:1011A00044004400440089018B013A00440044009B
:1011B00042007D244FE13F244DE122244BE15F2496
:1011C00049E17E2447E1404B197801BBA4F1A40317
:1011D0000A2B1CD8DFE813F042010B0044010D007C
:1011E00027000F00110013001500170019009C24A0
:1011F00013E09A2411E09B240FE096240DE09D2437
:101200000BE0982409E0942407E0952405E0A4F17C
:101210002003DBB2942B00F22581A4F120002B4B9C
:1012200003EB800000E00020002800F01B81002379
:10123000274A1370274A1360274A13704378FF2BFD
:1012400000F010810378853B2F2B00F2A680DFE8A9
:1012500003F018A4A4A4A4A4A4A4A4A4A4A4A4A42F
:10126000A4A4A4A4A4A4A4A4A4A4A447A4A4A4A49B
:10127000A4A4A4A4A4A4A4A4A4A4A4A4505E6C7A2A
:101280008896012D40F0EE80144A137883F0010314
:1012900013701BB1FFF700F9BDE8F88FFFF754F9A1
:1012A000BDE8F88FB497FF1F8E96FF1FBF96FF1FF4
:1012B000B697FF1FD597FF1FB897FF1FB797FF1F60
:1012C000D497FF1FC497FF1F308BFF1FD088FF1FCD
:1012D000D896FF1F9496FF1FB597FF1FE097FF1F3B
:1012E000012D40F0BF8081F001015F4B1970BDE816
:1012F000F88F012D05D15D4A137843F00103137077
:101300004DE05A4A137823F0010313704BE0012D8E
:1013100005D1564A137843F0020313703FE0534A55
:10132000137823F0020313703DE0012D05D1504ADC
:10133000137843F00103137031E04D4A137823F022
:10134000010313702FE0012D05D1494A137843F0B2
:101350000203137023E0464A137823F0020313704C
:1013600021E0012D05D1434A137843F001031370A6
:1013700015E0404A137823F00103137013E0012DA8
:1013800005D13C4A137843F00203137007E0394A51
:10139000137823F00203137005E0012D03D1FFF74A
:1013A0007BF8BDE8F88FFFF7CFF8BDE8F88F012292
:1013B000314B1A709CE5012D7FF431AEF7E7012225
:1013C0002D4B1A702D4B1B78002B7FF482AD8FE5CF
:1013D000012D7FF424AEF2E7A4F16103152B3FF653
:1013E000B6AD01A252F823F04514000041140000EC
:1013F00049140000070F00000B0F00000F0F000042
:10140000130F0000170F00001B0F00001F0F00003C
:10141000230F0000270F00002B0F00002F0F0000EC
:10142000330F0000370F00004F0F00003B0F00008C
:101430003F0F0000430F0000470F00004B0F00005C
:101440000F4D02E00F4D00E00F4D104B1C70BFE53B
:101450007B2400E07C24044B1978D8E69724DCE652
:101460009924DAE6BDE8F88F308BFF1FBC96FF1F8A
:10147000D697FF1FBE96FF1FAC97FF1FB997FF1FA0
:1014800014560000EC5500002C560000D896FF1FA3
:1014900008B511460120FFF79FFC08BD08B51146AD
:1014A0000020FFF799FC08BD38B5154681EA020413
:1014B00014F0010F07D002F00103264A13706821CF
:1014C0001846FFF789FC14F0020F06D0C5F3400060
:1014D000214B18706621FFF77FFC14F0040F06D033
:1014E000C5F380001D4B18706A21FFF775FC14F0DE
:1014F000080F06D0C5F3C000194B18706C21FFF718
:101500006BFC14F0100F06D0C5F30010154B1870CB
:101510006921FFF761FC14F0200F06D0C5F34010DD
:10152000114B18706721FFF757FC14F0400F06D0DD
:10153000C5F380100D4B18706B21FFF74DFC14F0B4
:10154000800F05D0E8090A4B18706D21FFF744FCA5
:1015500038BD00BF8E96FF1FB897FF1FB697FF1FBD
:101560009897FF1FBF96FF1FB797FF1FD597FF1FC5
:10157000B997FF1F10B582B0084C0023237041F0CB
:1015800002018DF804108DF80520022101A801F058
:10159000E5FE0123237002B010BD00BF1010FE4312
:1015A00030B587B0324B1B78012B1AD80223304A52
:1015B0001370304D002129702F4C0120207006AA95
:1015C00002F8041D0292019000910A462B4801F096
:1015D0001DFE9DF81430C3F340022A7003F001038E
:1015E0002370274801F076FC0022264B1A70214B0D
:1015F0001B7813B10122234B1A701F4B1B7823B1A8
:10160000204A137843F0020313701F4B1B78022B00
:1016100004D11C4A137843F004031370194B1C784F
:101620001A4B1B78A3420CD0184B1C70144D224649
:10163000A0212846FFF79EFF2209A8212846FFF790
:1016400099FF134B1B6804930499124B1B680BB151
:10165000CA1A00E000220F4B19600F490B681344AF
:101660000B60B3F5FA7F01D9FFF7BCF807B030BDC6
:10167000BD96FF1FE097FF1F308BFF1F9896FF1F3F
:10168000DC96FF1F8D96FF1FB497FF1F318BFF1F46
:101690000498FF1F9096FF1FB097FF1F10B5054CD1
:1016A00000232370084601F047FE01F0A5FE012348
:1016B000237010BD1010FE4310B50446F821FFF74B
:1016C000EDFF00F0C000402821D002D800283BD018
:1016D00010BD802802D0C02832D010BDD8212046AD
:1016E000FFF7DCFF10F0020F08D1C922D8212046F5
:1016F000FFF740FF0222194B1A7010BDCB22D821F0
:101700002046FFF737FF0322144B1A7010BDD82173
:101710002046FFF7C3FF10F0020F08D1CB22D821DB
:101720002046FFF727FF03220C4B1A7010BDC92279
:10173000D8212046FFF71EFF0222084B1A7010BD69
:101740000122064B1A7010BDD122D8212046FFF786
:1017500011FF0022014B1A7010BD00BF8C96FF1FB5
:101760002DE9F8430546DFF8D0904FF4A276C9F88A
:101770000060DFF8C880012488F800402B4F3C70DF
:1017800001F0ACFDC9F8006088F800403C70284BBF
:101790001E600024274B1C70182288212846FFF762
:1017A000E9FE202278212846FFF7E4FE2246782130
:1017B0002846FFF7DFFE4FF6FF74682602E0013C83
:1017C000A4B2F4B131462846FFF768FF10F0010FCC
:1017D000F5D01AE021462846FFF760FF10F0040F0D
:1017E000F8D02846FFF768FF2022C8212846FFF7D7
:1017F000C1FE012280212846FFF7BCFE0020BDE883
:10180000F8834FF0FF30BDE8F883C122D821284685
:10181000FFF7B0FE6022D0212846FFF7ABFE04227E
:10182000E8212846FFF7A6FEE824D3E71010FE4380
:101830000CB004408C12FE4310B004409012FE43E2
:1018400038B55F4D00242C702146082001F0BEFE03
:101850000121072001F0BAFE2146072001F084FE95
:10186000142001F097FF0121072001F07DFE1420D4
:1018700001F090FF0221052001F0A8FE02210E20B8
:1018800001F0A4FE02210F2001F0A0FE022112208F
:1018900001F09CFE0221132001F098FE0221162087
:1018A00001F094FE0221172001F090FE0421204651
:1018B00001F08CFE0421012001F088FE04210220A9
:1018C00001F084FE0421032001F080FE042108467B
:1018D00001F07CFE0421062001F078FE0421102096
:1018E00001F074FE0421112001F070FE0121204658
:1018F00001F03AFE0121084601F036FE01210220E6
:1019000001F032FE0121032001F02EFE012104200E
:1019100001F02AFE0121062001F026FE01211020FF
:1019200001F022FE0121112001F01EFE254B1C605A
:101930005C60254B1C605C60244B1C605C60244B2D
:101940001C605C60234B1C605C60234B1C605C6013
:10195000224B1C605C60224C04222146052001F0D1
:1019600075FE042221460E2001F070FE042221465D
:101970000F2001F06BFE04222146122001F066FECA
:1019800004222146132001F061FE04222146162084
:1019900001F05CFE04222146172001F057FE4FF4AF
:1019A000FA7001F0F7FE0F48FFF7DAFEC82001F0E9
:1019B000F1FE0D4A0D4B5A6101232B7038BD00BF5B
:1019C000BD96FF1FD897FF1FEC97FF1FC896FF1FFC
:1019D000C096FF1FBC97FF1FE497FF1FD096FF1F05
:1019E000E5070000DC96FF1F9C97FF1F9896FF1FDE
:1019F00010B5214C204600F0BDF8204B9C60204AD9
:101A00001A603C325A600022DA6183F8202083F8A1
:101A100022205A7308219973D97B01F0FC010F2011
:101A200060F38701D9731A745A74997C01F0FC0130
:101A3000012060F387019974D8769A761A765A61F4
:101A4000A36F4BB1204604F17803B4300122144651
:101A500053F8041F39B900E000241E34074A064B2E
:101A600043F8242002E001328342F0D1054B0022EA
:101A70001A73054A1A6010BDDC96FF1F9896FF1F67
:101A8000AC5500009C97FF1FE45D000029B110B425
:101A90000C46C37C8B4202D10EE0083070470246F0
:101AA0000223917EA14205D00133DBB20732102B15
:101AB000F7D107E043B100E001230830C3EBC303D3
:101AC000184402E0002000E0002010BC704700BF76
:101AD000F0B411F080073FD1072B47D8002A3FD040
:101AE000C479072C3CD141E0AE7E2EB10134E4B282
:101AF0000735102CF8D139E084B300E0012499B9FE
:101B000042B1C4EBC403034441221A73C3790133C5
:101B1000C37104E0C4EBC403034401221A73C4EB91
:101B2000C4040444277B21E04FF0000761F3C5079C
:101B300042B147F04007C3790133DBB2C37163F3AD
:101B4000020703E06FF3861763F30207C4EBC404D4
:101B500004442773FFB209E0002707E0374605E099
:101B6000C47C002CCAD005460224BDE73846F0BC30
:101B7000704700BFF0B4164B03600023C3710373BA
:101B8000012242738373051D85600371082343712D
:101B9000837903F0FC030F2161F38703837103460C
:101BA00000F1690700241646DC741E755C75C2EBF3
:101BB000C20101448D6007330132BB42F4D10023DE
:101BC00080F8B8301122034B1A70F0BC704700BF88
:101BD0001C6C0000F897FF1F30B421B10D46C37C88
:101BE0008B4203D10FE000F1080311E0014602230C
:101BF0008C7EAC4205D00133DBB20731102BF7D11C
:101C00001DE0F3B100E001230830C3EBC30303443C
:101C1000CBB11868C8B15B79CBB10178914217D0CC
:101C2000013BDBB2013303EB4303034402E00178E1
:101C300091420DD003309842F9D1002008E00020F5
:101C400006E0002004E0002002E0002000E0002088
:101C500030BC70470BB370B41E4619B1C37C8B42C5
:101C600003D10FE000F1080311E004460223A57E32
:101C70008D4205D00133DBB20734102BF7D10EE0D3
:101C80007BB100E001230830C3EBC303034453B12D
:101C900019711E605A71002006E0D8207047D620C6
:101CA00002E0D62000E0D62070BC70472DE9F84F46
:101CB000834616461F469DF82890002500EB8108B4
:101CC0004FF0640A00E00135D8F8780003685C68DA
:101CD0004B463A463146A047E02812D146B9012288
:101CE000E8215846FFF746FC662001F053FD12E05C
:101CF00006F11E035BF8230003685B6939469847C9
:101D000009E00D2806D1EBB2022B2FD8504601F086
:101D100041FDD8E770BBD8F8780003681C684B46D3
:101D20003A463146A0470D2806D1EBB2022B06D821
:101D3000504601F02FFDC6E70446D0B100E004464E
:101D400056B90122E8215846FFF714FC662001F03D
:101D500021FD2046BDE8F88F1E365BF8260003689B
:101D60005B69394698472046BDE8F88F0D20BDE8ED
:101D7000F88F0020BDE8F88F2DE9F04F85B00546BB
:101D80009B46254B1B680193019C04F59C54083429
:101D9000002081468046204E41EA020A33680293C1
:101DA000029B1B1B002B33DA5246F0212846FFF71B
:101DB000E1FBC82733680393039B1B1B002B0BDA43
:101DC00039462846FFF76AFC10F0800FF2D08022D7
:101DD000C8212846FFF7CEFBF8212846FFF75EFC16
:101DE00000F00F00042802D00E280AD010E009F1FC
:101DF00001091FFA89F9BBF1000FCFD0D945CDD128
:101E000006E008F101085FFA88F8B8F1030FC5D1C0
:101E100005B0BDE8F08F00BF0498FF1F2DE9F04F1B
:101E200089B00292019391F801B00BF1FF33DBB25C
:101E30003F2B00F2D48004460E466B4B1B68069382
:101E4000069B03F59C5A0AF1080A8B7813F0010FE0
:101E500014BF80224022E821FFF78CFB019B002B5E
:101E600000F0AE804FF000038DF80F30C827CDF89A
:101E700010B0D346129DBDF81030019A934228BF8E
:101E8000134605935FFA83F8584B9DF80F201A709C
:101E9000122001F051FA4146284601F05FFA012371
:101EA000524A1370424638212046FFF763FB3278CE
:101EB00042F02002F0212046FFF75CFB3946204625
:101EC000FFF7ECFB10F0800FF8D080223946204657
:101ED000FFF750FBF8212046FFF7E0FB00F00F0072
:101EE0004FF0000AD14600285ED03F4B1B68079395
:101EF000079BCBEB0303002B56DA062816D00E28DF
:101F00000BD004285ED10AF1010A1FFA8AFA029B5B
:101F10000BB39A451FD1054655E009F101095FFA57
:101F200089F9B9F1030F16D105464CE0F821204696
:101F3000FFF7B4FB80F02000C0F34010B37860F3EB
:101F40000003B37013F0010F14BF80224022E82178
:101F50002046FFF70FFB002238212046FFF70AFB3F
:101F60002A7810212046FFF705FB424638212046FB
:101F7000FFF700FB327842F02002F0212046FFF705
:101F8000F9FA39462046FFF789FB10F0800FF8D0A8
:101F9000802239462046FFF7EDFAF8212046FFF768
:101FA0007DFB00F00F009EE70199059A8B1A9BB20A
:101FB00019460193154400297FF45DAF054602E000
:101FC000002500E00546F8212046FFF767FBC0F337
:101FD0004010B37860F30003B370284600E0DA20C5
:101FE00009B0BDE8F08F00BF0498FF1F1010FE433A
:101FF0002DE9F04F85B000908B4602929846DDF8AF
:1020000038909DF83C300193B8F800704B780393FA
:102010000023A8F800308B7813F0020F14BF2022A1
:102020001022E821FFF7A6FADFF8F0A0029B9BF848
:10203000002000210098FFF79FFE0646062818D1D1
:10204000F821009C2046FFF729FB80F01000C0F328
:1020500000109BF8023060F341038BF8023013F05C
:10206000020F14BF20221022E8212046FFF782FA37
:10207000DCE700284ED1C821009C2046FFF70EFB6C
:1020800010F0040F45D030212046FFF707FB05462E
:1020900083B29F4238BFFDB2B8F800403C1B24B267
:1020A00024EAE474AC42A8BF2C464FF000038AF83F
:1020B0000030082001F040F9E4B22146484601F022
:1020C000AFF9A14401238AF800300422C821009806
:1020D000FFF750FAB8F800302B449BB2A8F8003054
:1020E000039A954201D39F420CD8F8210098FFF73C
:1020F000D5FAC0F300109BF8023060F341038BF86F
:10210000023007E0019B002B90D0184601F042FB03
:102110008CE7F026304605B0BDE8F08F1010FE4386
:10212000F8B50F4619B1C17CB94203D10FE000F1F7
:10213000080412E005460224AE7EBE4205D00134FA
:10214000E4B20735102CF7D135E0B4B300E0012438
:1021500000F10801C4EBC4040C4484B3216881B3CA
:102160001D4606463946FFF737FD286058B3837889
:102170009A080F2AA8BF0F2201239340013B069A19
:1021800013803A46E0213046FFF7F4F9D821304673
:10219000FFF784FAA37933B196F8B82042F002022F
:1021A0000243D2B201E000F0F902D8213046FFF735
:1021B000E1F90020F8BDD620F8BDD620F8BDD62024
:1021C000F8BDD720F8BDDB20F8BD00BF30B585B025
:1021D00004461D4600230393ADF80A300DF10A03AF
:1021E000009303ABFFF79CFF034660B9BDF80A20DC
:1021F0009DF824300193089B00932B4603992046B9
:10220000FFF7F6FE0346184605B030BD2DE9F04F46
:102210008BB0029003921C46BDF86090BDF86460DC
:102220001A9FDDF86C8000230693ADF816300DF18F
:102230001603009306ABFFF773FF0546002840F036
:102240009B808DF81C409DF850308DF81D309DF816
:1022500054308DF81E309DF858308DF81F30BDF881
:102260005C30ADF82030ADF82290454D00232B7046
:10227000222001F061F8082107A801F06FF801237E
:102280002B70BDF81630039A10210298FFF774FDE9
:102290000546002870D104F08004002F5BD0002C8C
:1022A00048D0069A937843F002039370B9F1000F77
:1022B0005DD04C464FF0000A01E0002C59D0ADF83B
:1022C0001460BDF81620CDF804A0009705AB069960
:1022D0000298FFF78DFE0546062810D1DDF818B0EC
:1022E000F8210298FFF7DAF980F02000C0F34010DF
:1022F0009BF8023060F341038BF80230DDE70028E1
:102300003AD1B8F1000F0ED0D8F80030D3F800B0B1
:10231000BDF81410C4EB0903ADF826300DF1260307
:102320003A464046D847BDF81430E41AA4B29E425B
:10233000C3D91CE0069A937843F001039370BDF86B
:1023400016200097334606990298FFF767FD054669
:1023500090B9802103E0002CCCBFA0218021BDF8E2
:102360001630039A0298FFF707FD054604E0A02106
:10237000F5E7A021002DF2D028460BB0BDE8F08F84
:102380001010FE4330B589B0002407940C9D0695CB
:10239000059304930394012302930194062300936D
:1023A0008023FFF733FF09B030BD00BF30B589B0DF
:1023B000002407940D9D069505930493039402232E
:1023C00002939DF830300193062300938023FFF79A
:1023D0001DFF09B030BD00BFF0B599B005460E46EF
:1023E00017461C4608AB019300940923FFF7DEFF54
:1023F000B0B91E9B079308AB069340230593BDF825
:1024000022300493002303930223029301940623B2
:10241000009380233A4631462846FFF7F7FEFFE750
:1024200019B0F0BD10B588B0002407940694059447
:102430000494039402940193052300932346FFF729
:10244000E5FE04464FF4967001F0A4F9204608B06A
:1024500010BD00BF10B588B0002407940694059401
:102460000494039402940193092300932346FFF7F5
:10247000CDFE08B010BD00BF002900F023832DE978
:10248000F04F99B017918346C1EBC103C218127B7C
:1024900002F007030D9312F0400F00F0AB8201230E
:1024A00003930F930193039A531EDBB20E2B00F29A
:1024B000AE820F2A00F29582C2EBC2035B441B7B03
:1024C000C3F3C2030D9A93420AD110E0C3EBC302D7
:1024D0005A44127BC2F3C2020D998A4206D000E030
:1024E000039B0133DBB20F2BF0D97AE20393039BFA
:1024F00013B976E201230393039B1293C3EBC30347
:102500000BEB0302127B02F007030C9312F0400F57
:1025100000F0598201230493049A531EDBB20E2B60
:1025200000F27F820F2A00F24582C2EBC2035B44B5
:102530001B7BC3F3C2030C9A93420AD110E0C3EB96
:10254000C3025A44127BC2F3C2020C998A4206D0DB
:1025500000E0049B0133DBB20F2BF0D92AE2049395
:10256000049B13B926E20F9B0493049B1193C3EBC6
:10257000C3030BEB0302127B02F007030B9312F071
:10258000400F00F009820F9B0593059A531EDBB2A2
:102590000E2B00F250820F2A00F2F581C2EBC2032B
:1025A0005B441B7BC3F3C2030B9A93420AD110E036
:1025B000C3EBC3025A44127BC2F3C2020B998A4294
:1025C00006D000E0059B0133DBB20F2BF0D9DAE136
:1025D0000593059B13B9D6E1019B0593059B1393C6
:1025E000C3EBC3030BEB0302127B02F007030A9356
:1025F00012F0400F00F0B981019B0693069A531E1A
:10260000DBB20E2B00F221820F2A00F2A581C2EB71
:10261000C2035B441B7BC3F3C2030A9A934209D1F2
:1026200010E0C3EBC3025A44127BC2F3C2028A42D7
:1026300007D001E00A99069B0133DBB20F2BF0D9DA
:102640008AE10693069B13B986E1019B0693069BDC
:102650001493C3EBC3030BEB0302127B02F00703DB
:10266000099312F0400F00F06981019B0793079ACC
:10267000531EDBB20E2B00F2F2810F2A00F25581BD
:10268000C2EBC2035B441B7BC3F3C203099A9342B0
:1026900009D110E0C3EBC3025A44127BC2F3C20259
:1026A0008A4207D001E00999079B0133DBB20F2B67
:1026B000F0D93AE10793079B13B936E1019B0793E1
:1026C000079B1593C3EBC3030BEB0302127B02F0D2
:1026D00007030E9312F0400F00F01981DDF804A0FB
:1026E000D14609F1FF33DBB20E2B00F2C281B9F102
:1026F0000F0F00F20381C9EBC9035B441B7BC3F3DB
:10270000C2030E9A934209D111E0C9EBC9035B449D
:102710001B7BC3F3C203934209D000E00E9A09F178
:1027200001095FFA89F9B9F10F0FEED9E6E0B9F1C5
:10273000000F02D1E2E0DDF80490CDF84090C9EB43
:10274000C9030BEB0302127B02F00703169312F08E
:10275000400F00F0C580DDF804A0CDF8209057466A
:102760009A467B1EDBB20E2B00F28E810F2F00F2F9
:10277000AC80C7EBC7035B441B7BC3F3C203534569
:1027800008D10EE0C7EBC7035B441B7BC3F3C20356
:10279000534506D00137FFB20F2FF3D9DDF8209053
:1027A00095E01FB9DDF8209091E0019F0297C7EBFB
:1027B000C7030BEB0302127B02F0070812F0400F75
:1027C00075D0019D6B1EDBB20E2B00F266810F2DC2
:1027D00065D8C5EBC5035B441B7BC3F3C20343450C
:1027E00008D10CE0C5EBC5035B441B7BC3F3C203FC
:1027F000434504D00135EDB20F2DF3D94FE00DB9AB
:102800004DE0019DA946C5EBC5030BEB0302127B0E
:1028100002F0070612F0400F2DD0019C631EDBB2C0
:102820000E2B00F243810F2C1DD8C4EBC4035B4474
:102830001B7BC3F3C203B34208D10CE0C4EBC40357
:102840005B441B7BC3F3C203B34204D00134E4B244
:102850000F2CF3D907E00CB905E0019C214658463E
:10286000FFF70AFEDAE79BF80730B34204BF03F133
:10287000FF338BF80730C9EBC909D9444FF0000387
:1028800089F80C304FF0010389F80D304FF0000348
:1028900089F80E300BF10403C9F8083092E79BF871
:1028A0000730434504BF03F1FF338BF80730029B29
:1028B000C3EBC3035B4400221A734FF00101597349
:1028C0009A730BF104029A604BE7DDF820909BF8B5
:1028D0000730169A934204BF03F1FF338BF8073099
:1028E000109BC3EBC3035B4400221A734FF001013A
:1028F00059739A730BF104029A60F2E69BF8073061
:102900000E9A934204BF03F1FF338BF80730159BF7
:10291000C3EBC3035B4400221A734FF001015973E8
:102920009A730BF104029A60A1E69BF80730099AAA
:10293000934204BF03F1FF338BF80730149BC3EBC2
:10294000C3035B4400221A734FF0010159739A7359
:102950000BF104029A6051E69BF807300A9A934201
:1029600004BF03F1FF338BF80730139BC3EBC303A2
:102970005B4400221A734FF0010159739A730BF1F3
:1029800004029A6001E69BF807300B9A934204BF59
:1029900003F1FF338BF80730119BC3EBC3035B4498
:1029A00000221A734FF0010159739A730BF104025C
:1029B0009A60B1E59BF807300C9A934204BF03F18B
:1029C000FF338BF80730129BC3EBC3035B44002239
:1029D0001A734FF0010159739A730BF104029A6054
:1029E00061E59BF807300D9A934204BF03F1FF3372
:1029F0008BF80730179BC3EBC3025A4400231373B1
:102A00000121517393730BF10403936057E09BF81A
:102A10001330C3F3C2030D9A93423FF46BAD01230D
:102A20005FE59BF81330C3F3C2030C9A93423FF463
:102A30009AAD0F9B8EE59BF81330C3F3C2030B9A3C
:102A400093423FF4C9AD019BBDE59BF81330C3F33E
:102A5000C2030A998B423FF4F8AD019BECE59BF869
:102A60001330C3F3C20309998B423FF427AE019B95
:102A70001BE69BF81330C3F3C2030E9A93423FF454
:102A80005AAEDDF804904AE69BF81330C3F3C20354
:102A900053453FF48AAE019F7CE69BF81330C3F3A5
:102AA000C20343453FF4ADAE019DA3E69BF813304E
:102AB000C3F3C203B3423FF4D0AE019CC6E619B0E3
:102AC000BDE8F08F704700BF2DE9F041412903D0E8
:102AD000C37C8B4216D124E0034600F16907012232
:102AE00000241646051DDC741E755C75C2EBC20120
:102AF00001448D60073301329F42F4D10023C3713A
:102B0000BDE8F08102460223947E8C4206D0013358
:102B1000DBB20732102BF7D1BDE8F081002B4BD090
:102B200000E0012305461F46C3EBC303C218127B16
:102B300002F0070612F0400F2BD00124A046631EBE
:102B4000DBB20E2B31D80F2C1DD8C4EBC4032B44A1
:102B50001B7BC3F3C203B34208D10CE0C4EBC40334
:102B60002B441B7BC3F3C203B34204D00134E4B251
:102B70000F2CF3D907E00CB905E04446214628465E
:102B8000FFF77AFCDBE7EB79B34204BF03F1FF33D5
:102B9000EB71C7EBC707EB1900221A7301215973B8
:102BA0009A7304359D60BDE8F081EB7CC3F3C203EA
:102BB000B342E2D04446D9E7BDE8F0812DE9F843BD
:102BC00010F1080700F0CC808468002C00F0CA8067
:102BD000837311F0800540F0CF80072A00F2CC808B
:102BE000C47C84B10646022496F81AE0BEF1000FB8
:102BF00005D00134E4B20736102CF5D1BEE0002C2C
:102C000000F0BA8000E0012431B9C4EBC4040444EC
:102C100001222273144610E04FF0000E764661F355
:102C2000C5066EF3861662F30206C4EBC4040444C0
:102C30002673F4B2002C00F09780C27CA2420ED022
:102C4000014602228E7EA64205D00132D2B2073161
:102C5000102AF7D18AE0002A00F08A8000E00122E1
:102C6000C2EBC202BA1800F0858006469371234673
:102C700000221146FFF7D6FB0746002800F08780A8
:102C8000412C03D0F37CA34216D123E0334606F156
:102C9000690E012200201546341DD8741D75587523
:102CA000C2EBC20131448C60073301329E45F4D13E
:102CB0000023F3713D466AE032460223917EA14231
:102CC00005D00133DBB20732102BF7D146E0002BE1
:102CD00044D000E001239846C3EBC303F218127BF3
:102CE00002F0070512F0400F2BD00124A146631E0D
:102CF000DBB20E2B44D80F2C1DD8C4EBC4033344D5
:102D00001B7BC3F3C203AB4208D10CE0C4EBC4038A
:102D100033441B7BC3F3C203AB4204D00134E4B29F
:102D20000F2CF3D907E00CB905E04C46214630469C
:102D3000FFF7A2FBDBE7F379AB4204BF03F1FF33FC
:102D4000F371C8EBC80806EB080300221A730121CF
:102D500059739A73301D98603D4618E03D4616E061
:102D6000D62514E0D72512E0D42510E0D6250EE0B4
:102D7000D6250CE0D6250AE0D42508E0D42506E0C7
:102D8000F37CC3F3C203AB42CFD04C46C6E7284620
:102D9000BDE8F8832DE9F04F8FB08146039104928E
:102DA0009A4600218DF8201008238DF821309DF8D7
:102DB000223003F0FC030F2262F387038DF82230E8
:102DC00003681B68984700287ED00446056808AB56
:102DD000036080F806A009AB00931223002211467D
:102DE0004846FFF7CFFA256000286FD1BDF82C3098
:102DF0000593BDF82E3006939DF8283007939DF873
:102E000029B009F17406344600255FFA85F80434C8
:102E1000206800B303681B699847E0B9206803681D
:102E20001B6A59469847B0B1206803689B69069AA7
:102E30000599984728B920680368DB69079998477E
:102E400048B1CDF800A0049B039A41464846FEF7DE
:102E50002DFFD12803D10135102DD6D102E0B8F1D4
:102E60000F0F33D90024E7B20436306810B303687B
:102E70001B699847F0B9306803681B6A5946984740
:102E800060B1306803689B69069A0599984788B9CC
:102E900030680368DB690799984758B9CDF800A0F6
:102EA000049B039A39464846FEF700FF00F0F703FB
:102EB000D12B0BD10134102CD5D15346049A039950
:102EC0004846FFF77BFE01E0D620FFE70FB0BDE8E4
:102ED000F08F00BF2DE9F04184B00746694B1B78A5
:102EE0007BB9C821FEF7DAFB10F0200F04D038467A
:102EF000FEF7E2FB202200E00022C8213846FEF760
:102F000039FB614B1B78032B2BD8DFE803F0080259
:102F1000171413225D4B1A704FF0000826E05B4B2C
:102F20001B7803F0F003102B1ED01122574B1A70A0
:102F30004FF000081AE04FF0010801E04FF00008E0
:102F4000524B1B7803F0F003102B0FD1504B1B6832
:102F50000093009BC8334F4A136020224B4B1A70DA
:102F600004E04FF0000801E04FF0000807F174069C
:102F700007F1B405344654F8040F10B10368DB6858
:102F80009847AC42F7D1414B1B78402B32D006D842
:102F9000202B1AD0302B24D0112B6FD106E0512BCF
:102FA00050D0802B5AD0502B68D139E0002387F8BD
:102FB000B83056F8040F10B103689B689847AE42CA
:102FC000F7D11222314B1A7058E0314B1B68019334
:102FD000019B304A12689B1A002B4FDB30222B4B8F
:102FE0001A700122E8213846FEF7C4FA4022274B26
:102FF0001A7043E0E8213846FEF750FB10F0010F4D
:103000003CD1D8213846FEF749FB40F00802D2B245
:10301000D8213846FEF7AEFA50221C4B1A702DE02C
:10302000C8213846FEF73AFB10F0400F26D0512257
:10303000164B1A70164B1B680293029B1433154AE9
:1030400013601BE0124B1B680393039B114A126829
:103050009B1A002B12DB80220C4B1A704346002275
:1030600011463846FFF796FE28B1D22806D0A02296
:10307000064B1A7002E09022044B1A7004B0BDE8AF
:10308000F08100BF0C12FE438C96FF1FF897FF1FC4
:103090000498FF1FF497FF1F2DE9F04F85B0DDF86E
:1030A000389099F80230012B54D0039105460179EC
:1030B00099F80020914202D003689B68984709F173
:1030C000010302936A1D019205F10B04174698460D
:1030D00008F10108C34698F800200137BA4697F86E
:1030E00000E00299019B0026B44613F8010F9042BC
:1030F00003D1012A18BF4FF0010C11F8010F7045E0
:1031000003D1BEF1010F18BF0126A342EDD1BCF1DE
:10311000000F0CD12B685B680399284698472B68F1
:10312000DB689BF8002099F800102846984736B9CC
:103130002B681B699AF80020297928469847A742EE
:10314000C6D109F1FF39033519F8013F05F8013FF0
:10315000A542F9D105B0BDE8F08F00BF0368D3B137
:1031600030B40479CCB1138813B91AE01388C3B111
:103170000B681D7843791B1B0468E5540379013BF8
:1031800003711388013B13800B6801330B600479D2
:10319000002CEBD101E0002070474379037101203E
:1031A00000E0002030BC704710B598B0047B806808
:1031B000079208AB06934023059380230493039161
:1031C00022230293002201920623009381232146A9
:1031D000FFF71CF818B010BD70B588B0BDF83440CA
:1031E000057B8068002607960E9E0696059404943B
:1031F000039202939DF83030019309230093212319
:103200000A462946FFF702F808B070BD70B588B0CD
:10321000BDF83440057B8068002607960E9E069612
:1032200005940494039202939DF830300193012396
:103230000093A1230A462946FEF7E8FF08B070BDB7
:1032400030B589B0057B8068002407940694059406
:1032500004940391029301920A23009321232246AE
:103260002946FEF7D3FF09B030BD00BF30B589B0A5
:10327000057B8068002407940694059404940391C8
:10328000029401920B230093212322462946FEF744
:10329000BDFF09B030BD00BF0D4B1B6813F4804F5C
:1032A00007D00C4B1A680A4BDA600B4A12681A6195
:1032B000704743F4804141F00101054A116005491E
:1032C0000968D1600449096811611360704700BF43
:1032D00000C00240FC97FF1F0098FF1F08B5114A6D
:1032E000136843F4805313604FF4107302F53F5298
:1032F0001C3213604FF4007104321160083A1360FD
:103300004FF03842084B1A604FF07842074B1A6072
:10331000074B084A1A601A6842F440621A60FFF7C5
:10332000BBFF08BD3C800440FC97FF1F0098FF1FB7
:1033300000C0024000001F80064B074A1A604FF091
:103340000042DA62104358631A46D36A002BFCDA53
:10335000704700BF00C00240000C1F80F8B50C464B
:1033600011F0010F05D0451C0078FFF7E5FF013C87
:1033700028461F4A1F4B1A60052C34D805196408CB
:1033800003D1854213D91B4A14E0821C0021194F36
:10339000104612F8026C12F8013C43EA062343F08F
:1033A00010437B6301310232A142F1DBE9E7ECB16A
:1033B000104A10E010F8021B10F8013C43EA01210A
:1033C000D36A13F0F00FFBD041F010435363936BBB
:1033D000A842EFD3EBE7D36A13F0F00FFBD0936B67
:1033E000013CF8D1F8BD05190324CEE7F8BD00BFB4
:1033F000000C1F8000C00240074B084A1A604FF0C3
:103400000042DA62FF325A631A46D36A002BFCDAB2
:10341000014B986BC0B2704700C00240000C1F8087
:10342000F8B504460D4611F0010F05D0461CFFF714
:10343000E3FF2070013D34461D4A1E4B1A60052DE6
:1034400002D86A0801D107E00322002319481A496B
:10345000416301339342FBDB5600A81B20448442A6
:1034600015D22146134A144FD36A13F0F00FFBD044
:103470005763936B1D1201F8025B01F8013C88420F
:10348000F2D8E343034423F0010302331C443044E5
:10349000A0420CD9074AD36A13F0F00FFBD0936B0C
:1034A000191204F8021B04F8013CA042F3D8F8BD3D
:1034B000000C1F8000C00240FFFF009008B50D4CBB
:1034C000236813F4802F01D000F086FA236813F4E8
:1034D000806F01D001F08CF8236813F4006F01D0E5
:1034E00001F028F9236813F4805FE9D001F0C4F9F2
:1034F000E6E700BF3480044008B5FFF7DFFF00BFF8
:103500001022014B1A80704700200540704700BF11
:1035100008B50B4B1B6880B16A461818A2F580529B
:10352000904206D301F066FA0C2303604FF0FF309F
:1035300008BD034A1060184608BD184608BD00BF04
:10354000348BFF1F704700BF044B00221A600449F0
:103550000A60044A106010221A60704714D00340B9
:1035600004D0034000D0034021281ED80F4B53F84D
:10357000303093F8802212F0FF0F08D019B10122E9
:1035800083F880207047012283F800217047074BA1
:1035900003EBC000436821B11A6842F003021A60CD
:1035A00070471A6822F002021A607047546C0000DB
:1035B000212806D8044B53F8303093F80002C0B2EB
:1035C00070470020704700BF546C000021283AD893
:1035D0001D4B03EBC0035B68012919D0042925D0DA
:1035E000194A52F83020002082F8800219B94FF4AD
:1035F00080721A607047022903D140F203121A60E8
:10360000704703290CBF4FF4817200221A60704783
:103610000D4A52F83020012182F880124FF4A27234
:103620001A601A6822F020021A607047064A52F89F
:103630003020012182F880124FF4A2721A601A68B9
:1036400042F020021A607047546C000070B52128C7
:1036500062D8042A60D8DFE802F0070905030B00EE
:10366000092606E00A2604E0082602E00C2600E00F
:103670000B260D463604294B03EBC0035C68236818
:1036800013F4E06F02D10021FFF7A0FF244B254A7D
:10369000C3F89C21244AC3F8A021244AC3F8A421DA
:1036A000234AC3F8A821234AC3F8AC2104F14043BC
:1036B000A3F592237C2B18D904F14043A3F594235E
:1036C0007C2B14D904F14043A3F596237C2B10D90D
:1036D00004F14043A3F598237C2B0CD904F140431B
:1036E000A3F59A237C2B08D970BD134906E0134932
:1036F00004E0134902E0134900E0134972B623685D
:1037000023F4702343F080722360C4F3840341F8F0
:1037100023501643266062B670BD00BF546C000093
:103720000082FF1FD187FF1FA587FF1F7987FF1F1B
:103730004D87FF1F2187FF1F388BFF1F708BFF1FD7
:10374000C08BFF1FF08BFF1F108CFF1F72B60D4B3D
:103750001B680D4A10680D4A126862B612F0806F3D
:1037600002D0322B88BF0130C3F53B437F33084A78
:10377000A2FB03234FF47A7202FB00F000EB53101C
:10378000704700BF18E000E00498FF1F04ED00E060
:10379000ABAAAAAA38B50546FFF7D8FF044625B953
:1037A00038BD013D0AD004F57A74FFF7CFFF001B46
:1037B000B0F57A7FF5D200F007FEF6E738BD00BF1E
:1037C00010B5274B4FF400021A604FF080721A6058
:1037D0004FF000721A604FF080621A604FF0006282
:1037E0001A6000201F4B18604BF6FF7104331960FC
:1037F00028231D4A13600832136008321360083210
:103800001360083213600832136008321360083204
:1038100013600922154C226004F5805404342060A2
:10382000043421600434236008342360143C226093
:1038300004F5FE24043420600D4801600D490B603E
:1038400008310B600C4B1A6000F00EFE3220FFF7BF
:10385000A1FF00F049FC4FF4AF70FFF79BFF10BDD4
:1038600008E100E0048003400C8003400080034036
:1038700008800B400C800B4000800B4010B40E4BB6
:103880001B7843F002040D4A02EBC40250600C4A5C
:103890001278002A14BFC820882040EA0141074856
:1038A00040F8341082F0010205490A7083F00103E8
:1038B000014A137010BC70477098FF1F0080FF1FF3
:1038C000E998FF1F38B572B61B4901231B4C11F84C
:1038D000012B12F0080F24D09A0054F832506DB921
:1038E000164B03EBC20108304860154943F832100B
:1038F000144A1378013B137062B638BD42F00102DE
:1039000054F832506DB90D4B03EBC20108304860DA
:103910000D4943F832100B4A1378013B137062B61D
:1039200038BD0133052BD2D162B60022054B1A7087
:1039300000F040FC38BD00BF646D00000080FF1F38
:1039400088004000DE98FF1FC8004000431E032B84
:1039500039D810B4400140F010001B4A104472B630
:103960001A4AD25C032A0BD8DFE802F01B040207D4
:10397000052217E00830022214E00830042211E08A
:10398000134A52F823201AB9114A42F8231003E0CF
:10399000104A52F8232051600E4A42F8231062B6B2
:1039A00010E00322094CE25401F10803436000F0E7
:1039B0000803002B14BFC82388230A8843EA024364
:1039C000036062B610BC70470080FF1F1C98FF1F89
:1039D000B498FF1FC498FF1F2DE9F04F85B0AB4C82
:1039E000DFF8F8A2DFF8F8B22578EDB215F0040F91
:1039F0001DD0A74B1B7813F0FF0F16D0A54B1A78DC
:103A000002F0FF032AB1013BDBB2A24A137003B9F3
:103A100000BEA14B1A7802F0FF0332B1013BDBB2CA
:103A20009D4A13700BB900F0FDFB0423237015F0C1
:103A3000080F00F0EF829AF80030DBB21D0940F069
:103A40002A82964E9D0806EBC5035A6856F8353013
:103A5000C3F38303013B0C2B00F21982DFE813F060
:103A6000D401D40117021702170217021702170216
:103A7000F1011702170217020D00894913680B6044
:103A800052684A60874A46F83520002286490A6013
:103A900082490A618A610121844A11709BB240F215
:103AA0008162934218D8B3F5D06F2ED2B3F5817FDF
:103AB00000F02D8106D8802B00F0D780822B00F0FB
:103AC000DA806FE140F20232934200F03581B3F5C3
:103AD000A06F00F06B8165E142F22102934200F099
:103AE0008F8107D8B3F5086F00F0B980B3F5106F78
:103AF00011D057E142F22122934200F04A8142F272
:103B00002132934200F052814CE1694B5D68002DF7
:103B100040F0278139E1624B9A785D4B1A705F4D16
:103B200005F180062B6A13F0800F03D0686A08380D
:103B300000F040FB0835B542F4D15E4B0093DFF84E
:103B4000A4815D4B0193DFF8A09100273E46009BC6
:103B50000293186828B1456800F02CFB2846002D18
:103B6000F9D1029B1E600297544B43F82760CDF8B1
:103B70000C80D8F8000028B1456800F01BFB2846EF
:103B8000002DF9D1039B1E60019B43F8046B019348
:103B90004B4B029A23F8126099F80030023B032B3A
:103BA00009D8DFE803F00205020589F8006002E0A9
:103BB000012389F800300137009B0433009308F19A
:103BC000040809F10109042FC1D100223D4B1A70EC
:103BD00001253D4EDFF81491304F904619F8013B16
:103BE00006F8043B13F0080F2BD000F0C3FA03468D
:103BF00040B1AA0007EB451108334B60334947F841
:103C0000321006E0AB0047F833802E4A13780133B8
:103C1000137000F0AFFA024650B1AB0043F001035D
:103C200007EBC30108324A601E4A47F8332008E018
:103C3000AB0043F0010347F83380224A1378013385
:103C40001370AB0043F0020247F8328043F00303E5
:103C500047F8338001351E4B9E42BFD119E20C4B11
:103C60001B781C4D2B700123A5E01A4D00232B70EF
:103C70006B7002239FE00A4B9B8803F07F03042BA9
:103C800036DD0F22144B1A70BAE000BF80200740C7
:103C9000E898FF1F7198FF1FEA98FF1F0080FF1F21
:103CA000D498FF1FC80040000898FF1FE998FF1F25
:103CB000686D00006098FF1FC498FF1F0C98FF1FDD
:103CC000D89AFF1FDE98FF1FC420074088004000DD
:103CD000D4200740E098FF1FC020074090200740F5
:103CE00094200740B498FF1F1C98FF1F646D0000CC
:103CF0009D4A0021117051709C4A12F8233013F034
:103D0000020F56D0984D01232B70022353E0984B9D
:103D10009B8803F07F03042B02DC954A52881AB17A
:103D20000F22924B1A706BE0904911F8232022F079
:103D3000020201F82320ACE18D4B9B8803F07F0346
:103D4000042B02DC8A4A52881AB10F22874B1A7060
:103D500056E0864911F8232042F0020201F82320A0
:103D600097E1834B59889888824B1A888A4208D1F8
:103D70005A88824205D1090A03290CBF2B781B8976
:103D800019E00C335D68002DEFD10F22774B1A70CC
:103D900036E0794B1A68794B1A60754B9A78784BF4
:103DA0001A7076E10F22714B1A7029E000231D462C
:103DB00001E002236C4D6E4AD6889E4228BF1E4603
:103DC0003746402E28BF402739462846FFF756FD84
:103DD0003D44F61B03D13F2F00F2608110E03746CF
:103DE000402E28BF402739462846FFF747FD3D446F
:103DF000F61B01D13F2F03D9624B1D60624B1E8021
:103E000001238BF8003042E0594B198842F221031C
:103E1000994212D15D4BD01D12F8011B03F8011F0E
:103E20008242F9D15A4B1B68862B02D10F22594B83
:103E30001A7000210846FFF721FD574B46F8353030
:103E400025E0504B1F68BFB1DFF83C81B8F8005047
:103E50002E46402D28BF402631463846FFF70EFD3E
:103E6000AD1BADB2A8F800500DB9402E01D13E44B3
:103E700000E00026434B1E603D4B1B88B3F5A06F4E
:103E800005D13B4B00225A709B78444A13700123A2
:103E90008BF80030BBE0424E9F0806EBC708D8F80D
:103EA0000420A2F10800013DEDB213F0080F47D045
:103EB00000F080F93B4B53F825304BB35968394A31
:103EC00042F8251003F10802C8F80420364A525D72
:103ED000032A12D8DFE802F002060A0E0321324A52
:103EE00051550AE00221304A515506E005212E4A7B
:103EF000515502E004212C4A515518F0080F14BF07
:103F0000C82288221B8842EA034346F837307EE005
:103F1000254B5B5D032B0BD8DFE803F079790206B4
:103F20000022214B5A5572E001221F4B5A556EE078
:103F300018F0080F14BF032202221B4B5A5566E0EB
:103F400056F837301B0C22F8083C002B57D00023C2
:103F500022F8063C42F8043C144B53F825303BBB96
:103F6000124B43F8250027E0E098FF1FC0200740D0
:103F7000D498FF1F686D00000498FF1FE89AFF1F88
:103F8000F498FF1F0898FF1FDC98FF1FDF9AFF1FA0
:103F9000E09AFF1F7198FF1FC8004000982007405B
:103FA0000080FF1FB498FF1F1C98FF1F6098FF1F21
:103FB0003E4B53F8253058603C4B43F825003C49B4
:103FC00031F8150032F8083C034421F8153000F0B0
:103FD000D1F8034658B10833C8F8043018F0080F78
:103FE000344A354B08BF134646F837300FE00023FC
:103FF00046F83730314A13780133137007E018F070
:10400000080F2C4A2C4B08BF134646F837300823BC
:104010002370E9E415F0010F21D0294902230B7028
:104020000022284B1A70284B22481860274C5C60ED
:1040300098602748D8601A619A610D20254B187046
:10404000FF23254803700838037018300270234A94
:1040500013709F22224B1A7001230B7023E015F07E
:10406000800F05D00D221B4B1A708022403B1A7026
:1040700015F0020F06D0184A1378DBB21370022233
:10408000184B1A7015F0100F0DD01022154B1A7026
:1040900009E000210846FFF7F1FBB1E600212846C0
:1040A000FFF7ECFBACE605B0BDE8F08F0C98FF1F06
:1040B000D89AFF1F88004000C8004000DE98FF1F0C
:1040C000942007407098FF1F0080FF1F2098FF1F5B
:1040D0007498FF1FC0200740882007408C200740AD
:1040E000842007408020074008B500F037FC1C48BA
:1040F00000F18801034600221A605A6008338B429F
:10410000FAD1184A136843F480231360C0F30722DE
:10411000154B1A70C0F3074214331A70000E0433A3
:104120001870FF23114A137008321370783A137015
:1041300001238432137000216C3211707C3A1370A9
:1041400070220B4B1A704FF40072A3F241331A60C5
:10415000102203F1C04303F5C8231A7008BD00BF45
:104160000080FF1F348004409C20074080200740CF
:1041700049E400E072B60D4B1A68B2FA82F30B2BD9
:1041800002D962B6002070474FF00041D94022EAC0
:10419000010206490A6062B6054903EBC303DB006E
:1041A000C8180022CA504260704700BF188CFF1F19
:1041B000BC83FF1F08B50F4BC31A0F4AA2FB032392
:1041C0001B090B2B14D80D4A12783AB10C4A1278FD
:1041D00012F0FF0F02D0FFF775FB08BD72B6094958
:1041E0004FF0004222FA03F30A681A430A6062B6EB
:1041F00008BD00BFBC83FF1F398EE338DE98FF1F68
:10420000E898FF1F188CFF1F044B9888044B1B680D
:104210001BB11A885B88D31A18447047D89AFF1FBD
:10422000F098FF1F08B50E4B1B7813F0FF0F16D147
:104230000C4B196841B14B880B800420FFF786FBBB
:104240000022084B1A6008BDFFF794FF014618B121
:104250000420FFF77BFB08BD0122034B1A7008BD49
:10426000EB98FF1FEC98FF1FEA98FF1F70B5EFF364
:10427000108272B60C4B186898B11C4600250B4E84
:10428000436923600BB19D6100E0356002B962B6FD
:10429000457783689847EFF3108272B6206800284C
:1042A000EED102B962B670BDF898FF1FFC98FF1FEF
:1042B00008B5FFF7DBFF08BD1C4B1B6823B9836003
:1042C000C3601A4B18602DE001681A6891420AD247
:1042D00083600022C260D8601A680168521A1A60AE
:1042E000124B18601EE09A68A2B102681968521A4F
:1042F00002609B6819688A42F5D28360DA68C260FE
:10430000D860C26890601A680168521A1A60022365
:104310000375704702681968521A026000228260B1
:10432000C360986002230375704700BF0099FF1FA8
:1043300070B5194B1C68ECB1236823B90025164EE3
:1043400004E0236813B1013B236013E0A36803B1C9
:10435000DD6033602575206903681B6822462946A5
:10436000984763681BB123602046FFF7A5FF3468B8
:10437000002CE6D1EFF3108372B6084A10680021D2
:10438000116003B962B628B18468FFF795FF204633
:10439000002CF9D170BD00BF0099FF1F1099FF1FBD
:1043A00008B5034A136801331360FFF7C1FF08BD66
:1043B0000498FF1F08B5FDF743FAFDF7F1F800F088
:1043C00003F8FAE7704700BF234B1B78002B42D15C
:1043D00010B50122204B1A70FFF716FF08B1FFF746
:1043E000F1FF00F0F5F808B100F0FEFA00F092F9E4
:1043F00008B100F0FBFA00F02FFA08B100F0F8FA6B
:104400000022154B1A70EFF305831BBBEFF31083EB
:1044100072B6124A106810B9E3B962B610BD104AFC
:10442000127812B1B3B962B610BD01210C4A1170F5
:1044300042690A490A6012B10021916102E000213B
:10444000084A116003B962B600244477836898472C
:10445000034B1C7010BD70471499FF1F0899FF1F74
:104460000C99FF1F0499FF1F60223A4B1A70E1223A
:1044700001331A70384B1B78082B10D1012203F13D
:10448000804303F56C331A60132334490B6001F544
:10449000FF2101F2FC710A60314A13601FE00A2B10
:1044A0000DD139222F4B1A6013232C490B6001F5D3
:1044B000FF2101F2FC710A60294A13600FE00C2B06
:1044C0000CBF35223D22274B1A60122323490B6073
:1044D00001F5FF2101F2FC710A60214A1360224BB1
:1044E0001B7833B10123214A136002F500221360C7
:1044F00005E000231D4A136002F5002213601C4BE7
:104500001B78012B06D880231A4A136002F500227B
:1045100013601AE0042B06D88423164A136002F5B0
:104520000022136011E0082B06D88523114A13607E
:1045300002F50022136008E0102B94BF8623872326
:104540000C4A136002F50022136001220A4B1A7014
:10455000704700BF004007401C8CFF1F0CB0034099
:104560000CB00B4008B003401699FF1F20B0034069
:104570001D8CFF1F24B003401599FF1FF0B44D1E82
:104580002E460024B0FBF2F302FB13032746092B4F
:1045900094BF30333733DBB206F8013FB0FBF2F0A3
:1045A00008B10134EEE70B1900225A7094420BDD7A
:1045B0001A46002315F8010F14782C7002F801092F
:1045C0000133F81A8342F5DB0846F0BC704700BFA0
:1045D000054B1878C0B2054B1B78DBB2984238BF48
:1045E0004030C01A704700BFA099FF1F1D99FF1FE0
:1045F00070B43E4B1B7913F0300F32D072B63B4B88
:104600009B7D03F0FF022BB9384BDA7940225A74B4
:1046100062B626E062B6364B1878C0B2354B1C78CD
:10462000E4B2324D344EEB79D9B2431C402B28BF53
:104630000023A3421CBFF1541846531E13F0FF027F
:10464000F1D1C3B22A4A13702C4B1B684BB1A04264
:104650002EBF001BC4F1400400192728C4BF01224B
:104660001A70224BDA78D2B212F0800F29D01B795F
:1046700013F0800F25D0224B1C78E4B2214B1B781D
:10468000DBB29C4212D019481F4D01E0A3420CD06E
:104690000133402B28BF00230179E95CC9B2C17105
:1046A000017DC9B20729F1D900E02346DBB21549E3
:1046B0000B700E4B1B7913F0800F02D07C210B4B3B
:1046C000D97012F0400F0ED0084B1B7913F0400F39
:1046D00009D000220D4B1A700D4B1B6803B11A70E4
:1046E0003C22024BDA7070BC704700BF00A006404D
:1046F000A099FF1F1D99FF1F6099FF1F1899FF1FA9
:10470000A899FF1FA199FF1F2099FF1F1C99FF1F48
:10471000A499FF1F054B1878C0B2054B1B78DBB27C
:10472000984238BF4030C01A704700BF1C9AFF1F24
:10473000B199FF1F70B43E4B1B7913F0300F32D08C
:1047400072B63B4B9B7D03F0FF022BB9384BDA79F5
:1047500040225A7462B626E062B6364B1878C0B270
:10476000354B1C78E4B2324D344EEB79D9B2431C50
:10477000402B28BF0023A3421CBFF1541846531EF0
:1047800013F0FF02F1D1C3B22A4A13702C4B1B68FD
:104790004BB1A0422EBF001BC4F1400400192728D2
:1047A000C4BF01221A70224BDA78D2B212F0800F05
:1047B00029D01B7913F0800F25D0224B1C78E4B24E
:1047C000214B1B78DBB29C4212D019481F4D01E0EF
:1047D000A3420CD00133282B28BF00230179E95CC8
:1047E000C9B2C171017DC9B20729F1D900E02346E0
:1047F000DBB215490B700E4B1B7913F0800F02D002
:104800007C210B4BD97012F0400F0ED0084B1B7956
:1048100013F0400F09D000220D4B1A700D4B1B688E
:1048200003B11A703C22024BDA7070BC704700BFB3
:1048300000B006401C9AFF1FB199FF1FDC99FF1FB3
:10484000AC99FF1F249AFF1F1D9AFF1FB499FF1FE9
:10485000B099FF1F209AFF1F054B1878C0B2054B77
:104860001B78DBB2984238BF4030C01A704700BF97
:10487000989AFF1F2D9AFF1F2E4B1B7913F0200FC4
:1048800022D02C4BDB79D9B22B4B1B780133402B38
:1048900028BF0023294A1278D2B2934204D0284A72
:1048A000D154DAB224490A70264A116861B1264A05
:1048B0001278D2B293422EBF9B1AC2F140029B18CB
:1048C000272BC4BF01230B701A4BDB78DBB213F02C
:1048D000800F1CD0174A127912F0800F17D01B4A94
:1048E0001178C9B2184A1278D2B2914203D16C2120
:1048F000104AD1700BE00132282A28BF0022144947
:10490000895CC9B20B48C171D2B20F490A7013F069
:10491000400F0ED0074B1B7913F0400F09D0002237
:104920000C4B1A700C4B1B6803B11A702C22014BF4
:10493000DA70704700C00640989AFF1F2D9AFF1F3B
:10494000589AFF1F289AFF1F999AFF1FA09AFF1FCE
:10495000309AFF1F2C9AFF1F9C9AFF1F72B61D4BA7
:1049600070221A7041211C4A11700F21013A1170F6
:1049700080221A701A46137813F0800FFBD000B50E
:1049800085B0164B186862B6154B98429CBF00EB79
:10499000800040000A2201A9FFF7F0FD9DF80430D5
:1049A0007BB908E010F8012F32B121F8022F013352
:1049B0000A2BF7D100E0002301335B00094A137092
:1049C00005E0084921F8023F01A80123EAE705B004
:1049D0005DF804FB000002400700024008000240AE
:1049E0007F969800AC8CFF1F704700BF704700BFD8
:1049F000704700BF014B1868704700BFF090FF1F61
:104A000070B50F4E0F4D761BB61018BF002405D0A1
:104A1000013455F8043B9847A642F9D10A4E0B4D94
:104A2000761B02F055FAB61018BF002406D00134E8
:104A300055F8043B9847A642F9D170BD70BD00BF40
:104A4000DC6E0000DC6E0000E86E0000DC6E000032
:104A5000034A044B1268506B002808BF1846704781
:104A6000F090FF1FF490FF1F08B5034B1868FFF785
:104A7000EFFFD0F8EC0008BDF090FF1F024B01469D
:104A8000186800F003B800BFF090FF1F2DE9F04F49
:104A900001F10B05162D83B0064640F29F8035F0DC
:104AA000070500F1BF80A94200F2BC8000F0BCFA0B
:104AB000B5F5FC7FC0F09C826B0A00F0BA80042B35
:104AC00000F28381A80900F1390E4FEA4E03383015
:104AD000C44F07EB8303A3F108015C68A14207D12F
:104AE000ACE0002A80F2AC80E468A14200F0A6802D
:104AF000636823F003035A1B0F2AF2DDB9493C69AE
:104B000001F1080E744500F0B381636823F00303DC
:104B10005A1B0F2A00F39981002AC1F814E0C1F84A
:104B200010E080F29E80B3F5007F80F06781DB08A3
:104B300003F1010C01229B1002FA03F34A6851F8B9
:104B40003C80C4F8088001EBCC091A43A9F10803A2
:104B5000E3604A6041F83C40C8F80C4083100124EF
:104B60009C40944200F28A80144206D120F0030057
:104B70006400144200F10400FAD007EBC009CC46EF
:104B80008046DCF80C108C4507D173E1002A80F2D6
:104B90008181C9688C4500F06D814B6823F0030367
:104BA0005A1B0F2AF2DD0C46D1F80CC054F8088FBE
:104BB0004B1945F001054D6042F00101C8F80CC0E9
:104BC0003046CCF808807B613B61C3F80CE0C3F849
:104BD00008E059609A5000F029FA1FE0102921D806
:104BE00000F022FA1025062302207E4F07EB8303F4
:104BF000A3F108025C68944200F045816368E168B3
:104C0000A56823F00303234430465A68E96042F064
:104C100001028D605A6000F009FA0834204603B0A2
:104C2000BDE8F08F00240C232046336003B0BDE8BC
:104C3000F08F80234FF0400E3F2049E770465DE73C
:104C40002344E1685A68A56842F00102E9603046F1
:104C50008D605A6000F0EAF90834204603B0BDE8E0
:104C6000F08F234430465A6842F001025A6000F047
:104C7000DDF90834204603B0BDE8F08FBC686368F6
:104C800023F00308A84504D3C5EB08030F2B00F35A
:104C90008C80554BDFF860911A68D9F800300133E9
:104CA0002A4404EB080A00F0608102F580520F32BA
:104CB00022F47F6222F00F0211463046019200F08A
:104CC000B7F9B0F1FF3F8346019A00F05881824561
:104CD00000F2FC80454B1968DA451144196000F078
:104CE0005381D9F80000DFF810E101301BBFCAEB97
:104CF0000B0A5144CEF800B019601BF0070100F018
:104D00001781C1F10800C1F58051834408315A442C
:104D1000C2F30B02C2EB010949463046019300F091
:104D200087F9431C019B00F03F81CBEB00024A4412
:104D300042F001021968C7F808B04944BC42CBF8F8
:104D400004201960DFF8A49016D0B8F10F0F40F2DC
:104D5000FD806268A8F10C0323F00703E01802F05D
:104D600001024FF0050E1A430F2B6260C0F804E0F9
:104D7000C0F808E000F21C811D4BBC681A68914223
:104D800088BF19601B4B1A689142626888BF19601E
:104D900022F003029542A2EB050301D80F2B04DC9D
:104DA000304600F043F9002438E7621943F001036C
:104DB00045F0010565603046BA60536000F036F991
:104DC0000834204603B0BDE8F08F142B71D9542B62
:104DD00000F2A480280B00F16F0E4FEA4E036E30F4
:104DE00076E600BF6092FF1FAC9AFF1FB09AFF1FCC
:104DF000A89AFF1FA49AFF1F6C96FF1F5A0A042A45
:104E00005ED9142A00F2B38002F15C0149005B32E2
:104E100007EB810C57F82110DFF8DC81ACF1080CAE
:104E20008C4500F088804A6822F00302934202D247
:104E300089688C45F7D1D1F80CC07A68C4F80CC0E9
:104E4000A160CCF80840CC6088E6631942F0010705
:104E500045F00105656030464B610B61C3F80CE01D
:104E6000C3F808E05F609A50083400F0DFF8D5E638
:104E70004A6873E608F1010818F0030F0CF1080CFA
:104E80007FF47FAE30E0DC68A34208BF02303FF41D
:104E900035AEB3E60B440C465A68C96854F8085F4F
:104EA00042F001025A603046E9608D6000F0BEF8C1
:104EB000B4E603F15C0E03F15B004FEA4E0307E634
:104EC0009A0902F1390149003832A1E7BC424A4B44
:104ED0003FF400AF9C68626822F003025AE759F879
:104EE0000839994540F0828010F0030F00F1FF303F
:104EF000F5D17B6823EA04037B6064009C423FF6A3
:104F0000BDAE002C3FF4BAAE1C4240467FF435AE35
:104F100064001C4200F10400FAD02EE6B3F5AA7F2B
:104F200018D8E80B00F1780E4FEA4E037730CFE542
:104F30004FF48051EBE60121D8F80430921001FAC9
:104F400002F21A43C8F80420614677E70123CBF840
:104F5000043025E740F25452934220D8A80C00F1C7
:104F60007D0E4FEA4E037C30B2E51032A4E6542A9F
:104F700026D81A0B02F16F0149006E3248E7BC686F
:104F8000626822F0030205E7CAF30B0000287FF4F1
:104F9000A8AE4244BB6842F001025A60ECE6FE2330
:104FA0004FF07F0E7E2093E501224FF00009C1E60D
:104FB00004F10801304600F0AFF9D9F80010DBE643
:104FC000B2F5AA7F05D8DA0B02F1780149007732F1
:104FD0001EE740F254518A4205D89A0C02F17D0135
:104FE00049007C3214E7FE217E2211E77B6884E7CA
:104FF000E808431C5B00F8E56092FF1F82B049B1EE
:105000005AB16BB113780B601278101C18BF0120D5
:1050100002B0704701A9002AF3D1104602B07047D0
:105020006FF00100F4E700BF704700BF704700BF9A
:1050300038B5074C0023054608462360FEF768FA9A
:10504000431C00D038BD2368002BFBD02B6038BD3B
:10505000EC9AFF1FFFFFFFFFFFFFFFFFFFFFFFFFB8
:10506000FFFFFFFFFFFFFFFFFFFFFFFFFFFFFFFF50
:10507000FFFFFFFFFFFFFFFFFFFFFFFFFFFFFFFF40
:1050800090F800F06DE9024520F007016FF0000C88
:1050900010F0070491F820F040F049804FF0000430
:1050A0006FF00700D1E9002391F840F000F108000B
:1050B00082FA4CF2A4FA8CF283FA4CF3A2FA8CF343
:1050C0004BBBD1E9022382FA4CF200F10800A4FAAA
:1050D0008CF283FA4CF3A2FA8CF3E3B9D1E90423FE
:1050E00082FA4CF200F10800A4FA8CF283FA4CF335
:1050F000A2FA8CF37BB9D1E9062301F1200182FAEF
:105100004CF200F10800A4FA8CF283FA4CF3A2FAF4
:105110008CF3002BC6D0002A04BF04301A4612BA02
:10512000B2FA82F2FDE8024500EBD2007047D1E905
:10513000002304F00305C4F100004FEAC50514F094
:10514000040F91F840F00CFA05F562EA05021CBF65
:1051500063EA050362464FF00004A9E7002A41D044
:1051600040EA010313F00303F0B425D1032A23D945
:1051700004680D68AC421FD1043A35D0A4F1013562
:1051800025EA040414F0803F31D1071D0D1D0DE008
:1051900057F8043B0E68A3F10134B34224EA030438
:1051A0000AD1043A20D014F0803F23D1032A2946A3
:1051B000384605F10405EBD803780C789C4202F1DF
:1051C000FF320CD182B114B916E06AB17BB110F88C
:1051D000013F11F8014FA34202F1FF32F5D0181B35
:1051E000F0BC7047104670471046F0BC7047184638
:1051F000F0BC70470020F3E72046F1E710B5044605
:10520000FFF732FC2044437803F00303022B0CBF6A
:10521000A4F12000204610BD21B1FF2A04D80A7055
:1052200001207047084670478A2303604FF0FF3023
:10523000704700BF024B13B1024800F005B8704739
:105240000000000055520000002301461A4618468F
:1052500000F04AB938B5074D074C2C1BA41005D0F7
:10526000013C55F8043D9847002CF9D1BDE8384081
:1052700001F03ABE0000000000000000F8B5234F26
:105280000C460646FFF7D0FEBB685D6825F00305B7
:10529000291B01F6EF7121F47F6121F00F01A1F5C7
:1052A0008054B4F5805F07DB00213046FFF7C0FE75
:1052B000BB682B44984204D03046FFF7B7FE00206D
:1052C000F8BD61423046FFF7B3FE01300DD0104B00
:1052D000BA6819682D1B45F001053046091B556059
:1052E0001960FFF7A3FE0120F8BD00213046FFF74B
:1052F0009FFEBA68831A0F2BDEDD064C0449246832
:1053000043F00103001B53600860D5E76092FF1F64
:10531000B09AFF1F6C96FF1F002945D02DE9F04180
:105320000D468046FFF780FE55F8047C6A4927F059
:105330000103A5F10804E2188E685068B24220F01B
:10534000030062D0FE0750600BD455F8087CE41BC4
:1053500001F1080EA56875453B446FD0E768EF6022
:10536000BD6015186D68ED0742D543F0010262601B
:10537000E350B3F5007F18D2DB085A1C4D6851F892
:105380003270A76001209B1000FA03F301EBC2000A
:105390001D430838E0604D6041F83240FC604046F3
:1053A000BDE8F041FFF742BE70475A0A042A53D8BD
:1053B0009A0902F139077F0002F1380501EB8700F5
:1053C00051F827204449083890424DD0516821F0C7
:1053D00003018B4202D292689042F7D1D068E0601C
:1053E000A2608460D4604046BDE8F041FFF71EBE75
:1053F00095683A4FBD4203443FD0D068E86043F01F
:10540000010285606260E350B3E7FF07034407D4FD
:1054100055F8082CA41A1344A068E268C260906092
:105420002F4A126843F00100934260608C60B6D34B
:105430002C4B40461968FFF721FFB0E71118496867
:10544000C90744D49168D268CA60034443F001009C
:1054500091606060E350A2E7142A17D802F15C075C
:105460007F0002F15B05A9E7AA104B68012505FA48
:1054700002F213434B600246B1E743F001024C6174
:105480000C61E560A5606260E35088E7542A06D8A5
:105490001A0B02F16F077F0002F16E058EE7B2F57D
:1054A000AA7F06D8DA0B02F178077F0002F17705B0
:1054B00084E740F25450824206D89A0C02F17D07EC
:1054C0007F0002F17C0579E7FE277E2576E743F031
:1054D00001026260E35062E76092FF1F6892FF1F63
:1054E0006896FF1FAC9AFF1F2DE9F047254C2568F1
:1054F000D5F848410646884692469946C4B3606846
:105500001F2817DC431C76B104EB80050122C5F887
:1055100088A0D4F8881182401143022EC4F8881163
:10552000C5F808911ED00230636044F82080002046
:10553000BDE8F087144B03B34FF4C870FFF79EFA31
:105540000446D0B1D5F84831002780E88800C5F876
:10555000484138460123C4F88871C4F88C71002E84
:10556000E1D0D1E7D4F88C110A43C4F88C21DAE7F2
:1055700005F5A674C5F84841C1E74FF0FF30BDE816
:10558000F08700BFBC6D00007D4A000000000000F5
:1055900000000000E10B000000000000000000001F
:1055A000E90600000000000000000000B109000052
:1055B0006D04000039060000350900005D0600009A
:1055C0007104000075040000610600006D06000013
:1055D000790600002D060000810600008906000003
:1055E000FCFFFFFF00000000E106000001000300D7
:1055F000E86B000002000600F06B000003000300EF
:10560000046C0000040003000C6C000000000000AB
:105610000000000001000000585E000002000000D1
:10562000605E0000000000000000000001000600B5
:10563000086B0000020006001C6B00000300000065
:10564000306B000004000300406B00000500000008
:105650004C6B000006000200586B000007010C00B4
:10566000646B000007020E00806B000007FF030060
:105670009C6B000008010600B06B000008FF0900E9
:10568000C46B000009000000C85E00000A000400AE
:10569000DC6B0000000000000000000001000200C0
:1056A0002C6A000002000500346A000003000300B9
:1056B000406A0000040103004C6A000004FF00007F
:1056C000606A000005000B00746A00000601040017
:1056D000886A000006021100986A000006FF1100A7
:1056E000B46A000007010A00D06A000007FF0C003E
:1056F000EC6A000000000000000000000100000053
:10570000585F000002000300F46900000301060076
:10571000FC69000003FF0C000C6A00000400030099
:10572000246A0000000000000000000001010C00DD
:10573000C469000001FF1500D869000000000000E6
:1057400000000000010007009C6900000200020048
:10575000B069000003000200BC6900000000000006
:1057600000000000010107007069000001FF0A004D
:1057700084690000000000000000000001010D002D
:10578000D868000001FF1800EC6800000200020069
:105790000869000003000000146900000401020011
:1057A0002069000004020B002C69000004030600BD
:1057B0004069000004FF0E0050690000050003006E
:1057C0006869000000000000000000000101060000
:1057D000B068000001FF0600C4680000000000007F
:1057E0000000000001000E009868000000000000AA
:1057F0000000000001000300B8670000020005007F
:10580000C067000003000900CC670000040102002B
:10581000E467000004020B00F067000004030600C8
:105820000468000004FF0E00146800000501070072
:105830002C68000005FF0C003C6800000600110009
:105840005068000007000F007068000008000300A7
:105850009068000000000000000000000100080047
:105860005C6700000200060074670000030002008D
:1058700080670000040006008C67000005000F0030
:105880009867000000000000000000000100000018
:10589000A860000002000200406700000301000051
:1058A000B4600000030202004867000003FF060026
:1058B000506700000000000000000000010002002E
:1058C000D866000002010000CC6000000202000067
:1058D000BC60000002030000E860000002FF02005C
:1058E000E066000003001100EC66000004001000F8
:1058F00004670000050100002061000005020000AF
:105900003461000005FF0000106100000600110076
:105910001867000007000300306700000000000067
:105920000000000001000C009465000002000C0063
:10593000B0650000030000007C6100000400090065
:10594000C865000005000F00D865000006010200D0
:10595000F865000006020600046600000603060063
:105960001866000006FF06002C660000070106000E
:105970004066000007020E005066000007030F009B
:105980006866000007040F00806600000705170026
:105990009866000007FF1700B866000000000000CE
:1059A0000000000001000000A461000002000200ED
:1059B0000C650000030003001465000004000200F1
:1059C0001C65000005010000D8610000050202000E
:1059D0002465000005FF06002C650000060100009C
:1059E000E8610000060202003865000006030200BC
:1059F0004465000006FF0A00506500000701000032
:105A0000FC610000070202006465000007FF00005F
:105A10000462000008000000706500000900060034
:105A2000746500000A010000206200000A02020002
:105A3000806500000AFF0300886500000000000088
:105A40000000000001010200BC6300000102080028
:105A5000C463000001FF0C00D463000002010300D6
:105A6000E863000002020300F863000002FF060082
:105A70000864000003000900186400000400090025
:105A800030640000050003004064000006000400CC
:105A90004C64000007000000806200000800120053
:105AA0005864000009000600786400000A0115002F
:105AB0008C6400000AFF1B00B06400000B000300B0
:105AC000DC6400000C000000B46200000D00030064
:105AD000E46400000E010400F06400000EFF080002
